:020000021000EC
:10C000000000012095C40100D5C40100D7C401007F
:10C01000D9C40100DBC40100DDC401000000000040
:10C02000000000000000000000000000DFC401006C
:10C03000E1C4010000000000E3C40100E9C4010004
:10C04000E7C40100E7C401004DCE0100E7C40100D0
:10C05000E7C40100E7C40100E7C40100E7C4010030
:10C06000E7C40100E7C40100E7C40100E7C4010020
:10C07000E7C40100E7C40100E7C40100E7C4010010
:10C08000E7C40100E7C40100E7C40100E7C4010000
:10C09000E7C40100E7C401002DD00100E7C401009E
:10C0A000E7C40100E7C40100E7C40100E7C40100E0
:10C0B000E7C40100E7C40100000000000000000028
:10C0C000E7C40100E7C40100E7C40100E7C40100C0
:10C0D000E7C40100E7C40100E7C40100000000005C
:10C0E0000000000000000000000000000000000050
:10C0F0000000000000000000000000000000000040
:10C10000000000000000000000000000000000002F
:10C11000000000000000000000000000000000001F
:10C4000010B5054C237833B9044B13B10448AFF38E
:10C4100000800123237010BD884000200000000030
:10C42000F40D020008B5064B1BB106480649AFF3F0
:10C4300000800648036813B1054B03B1984708BD57
:10C4400000000000F40D02008C4000208440002019
:10C45000000000000920012100F054BA08B50121B4
:10C46000092000F0AFFA4FF47A7000F045F8092087
:10C47000002100F0A7FA4FF47A70BDE8084000F000
:10C480003BB8000002482021212200F0D7BB00BFAA
:10C49000A44000200B490C4A0C4B9B1A03DD043BC3
:10C4A000C858D050FBDC0949094A0020521A02DD65
:10C4B000043A8850FCDC00F031F803F0D9F800F0C1
:10C4C000CBFC0000F80D0200004000208840002056
:10C4D0007C470020FEE7FEE7FEE7FEE7FEE7FEE71B
:10C4E000FEE7FEE7FEE7FEE7024B1A6801321A603C
:10C4F000704700BF0041002070B5044648B1054BAD
:10C500001D681E4600F008F83268631E521B9A42EE
:10C51000F8D970BD0041002070470000944B1B7893
:10C52000062B0AD1934B1B681A0706D1924B1B6846
:10C5300003F0F003302B00F0AA808D4B1B78062B04
:10C540000FD18C4B1B681B070BD18B4B1B6803F067
:10C55000F002302A00F09F8003F0E003402B00F04F
:10C560009A80834B1B78062B0AD1824B1B681807D5
:10C5700006D1814B1B6803F0F003302B00F0928052
:10C580007B4B1B78062B0FD17A4B1B6819070BD1FD
:10C59000794B1B6803F0F002302A00F0898003F029
:10C5A000E003402B00F08480714B1B78062B09D1EF
:10C5B000704B1B681A0705D16F4B1B6803F0F00323
:10C5C000302B7FD06A4B1B78062B0AD1694B1B6836
:10C5D00013F00F0305D1684A126802F0F002302A06
:10C5E00074D0634B1B78062B09D1624B1B681B0769
:10C5F00005D1614B1B6803F0F003502B70D05F4BEB
:10C60000D3F8882042F47002C3F88820BFF34F8F1C
:10C61000BFF36F8F4FF01023D3F80022002A03DB03
:10C62000D3F80432002B2EDA554B0122C3F804252F
:10C63000D3F80024002AFBD04FF010221521C2F8B5
:10C640000012D3F80024002AFBD04FF0102315224B
:10C65000C3F804224A4BD3F80024002AFAD000225F
:10C66000C3F80425D3F80024002AFBD0BFF34F8F72
:10C67000424A444BD16801F4E0610B43D360BFF3FD
:10C680004F8F00BFFDE7404B404A1A607047404B58
:10C69000404A1A6051E7404B1A68404BC2F342329D
:10C6A0001A605EE73E4BDA6822F08072DA6067E774
:10C6B0004FF080430022C3F80C21C3F81021C3F8C7
:10C6C000382571E7374B03221A607BE7364A05218C
:10C6D0001160012191679360344B3F221A6080E71B
:10C6E0004FF08052324BD2F80414C3F82015D2F820
:10C6F0000814C3F82415D2F80C14C3F82815D2F87E
:10C700001014C3F82C15D2F81414C3F83015D2F84D
:10C710001814C3F83415D2F81C14C3F84015D2F815
:10C720002014C3F84415D2F82414C3F84815D2F8DD
:10C730002814C3F84C15D2F82C14C3F85015D2F8AD
:10C740003014C3F85415D2F83414C3F86015D2F875
:10C750003814C3F86415D2F83C14C3F86815D2F83D
:10C760004014C3F86C15D2F84424C3F8702546E78A
:10C77000E00F00F0E40F00F0E80F00F000ED00E043
:10C7800000E001400400FA05004000200090D003C2
:10C7900074C007400DF0ADBA440200103C050040E3
:10C7A000F0ED00E0A0050040105600401456004097
:10C7B00000C00040114A4FF0402330B51360104ACA
:10C7C000D2F8A811D2F894214FF0A04001F5E075FD
:10C7D000002440F8254002F5E07540F82540C3F8F4
:10C7E0000815C3F80C254FF0CC72C3F82425062297
:10C7F000C3F80025034B01221A7030BD60470020AA
:10C80000080502000440002010B5234B2349244CA6
:10C81000097800221A70234B1B68C3F84445C3F8FB
:10C82000481521490978C3F8881510B14FF40071F3
:10C8300001E04FF48071C3F80012C3F80421C3F87B
:10C840002421C3F84821C3F8602101229A60C8B1AD
:10C85000D3F8042172B9D3F82421002AF8D0012298
:10C860005A61D3F8C424C3F8C424022A0CBF02209E
:10C87000032010BD0D4B0020187010BDD3F82421EB
:10C88000002AEED1D3F84821002AF7D0074B012225
:10C890001A70002010BD00BF5C470020054000203A
:10C8A00065470020604700206447002004410020C5
:10C8B0000120FFF7A9BF00000E4B197829B10E4BDC
:10C8C0001B789BB10D4B187012E00D4B0B4A1B6887
:10C8D0001070C3F85011C3F844250122C3F848254D
:10C8E0005A63D3F85021002AFBD001E01846704764
:10C8F00001207047044000205C470020654700206D
:10C9000068470020222810B50ED1032921D10F201D
:10C9100000F006F9FFF74EFF274B48221A70274B0D
:10C9200001221A70F8200EE02B2812D189B90F20AD
:10C9300000F0F6F8FFF73EFF1F4B48221A701F4B1E
:10C9400001221A70EC20FFF7B7FFBDE81040FFF797
:10C95000AFBF1B4B142202FB003494F90840013492
:10C9600028D0042926D8DFE801F0031C0A2511008D
:10C9700002FB00300021426802F5E0720CE002FB8D
:10C9800000300C21426802F5E07205E002FB003045
:10C990000421426802F5E0724FF0A04343F82210F0
:10C9A00010BD02FB0030012243689A404FF0A043C3
:10C9B000C3F8182510BD00BF644700205C47002065
:10C9C0000805020070B5A0F1260506460C46042DA8
:10C9D00000F28880DFE805F0031D37516A000F2060
:10C9E00000F09EF8012C08D1FFF7E4FE494B4822E5
:10C9F0001A70494BE2201C7070E0002C72D1FFF7D6
:10CA0000D9FE444B48221A70434B01221A70E3208E
:10CA100064E00F2000F084F8012C08D1FFF7CAFE73
:10CA20003C4B48221A703C4BE4201C7056E0002C12
:10CA300058D1FFF7BFFE374B48221A70364B012200
:10CA40001A70E5204AE00F2000F06AF8012C08D1A6
:10CA5000FFF7B0FE2F4B48221A702F4BE6201C70B8
:10CA60003CE0002C3ED1FFF7A5FE2A4B48221A706D
:10CA7000294B01221A70E72030E00F2000F050F817
:10CA8000012C08D1FFF796FE224B48221A70224B48
:10CA9000E8201C7022E02CBBFFF78CFE1D4B4822C7
:10CAA0001A701D4B01221A70E92017E00F2000F0C8
:10CAB00037F8012C08D1FFF77DFE164B48221A707B
:10CAC000154BEA201C7009E064B9FFF773FE114BA7
:10CAD00048221A70104B01221A70EB20FFF7ECFE6F
:10CAE000FFF7E6FE042D13D90C4B142202FB063689
:10CAF00096F9083001330BD0726801214FF0A04342
:10CB000001FA02F214B9C3F80C2570BDC3F8082568
:10CB100070BD00BF644700205C470020080502008C
:10CB200082B00190019B002B41D0019B013B0193FE
:10CB300040F2E730013800BF00BF00BF00BF00BFB8
:10CB400000BF00BF00BF00BF00BF00BF00BF00BFED
:10CB500000BF00BF00BF00BF00BF00BF00BF00BFDD
:10CB600000BF00BF00BF00BF00BF00BF00BF00BFCD
:10CB700000BF00BF00BF00BF00BF00BF00BF00BFBD
:10CB800000BF00BF00BF00BF00BF00BF00BF00BFAD
:10CB900000BF00BF00BF00BF00BF00BF00BF00BF9D
:10CBA00000BF00BF00BF00BF00BFC3D1BAE702B0E3
:10CBB0007047012070470000014B01221A60704746
:10CBC00008200040064B1970064B00221A60064AE6
:10CBD000012111601A68002AFCD00120704700BFB3
:10CBE0000541002020210040082000400C4BD3F8D4
:10CBF000002222F02002C3F800220A4A012111601B
:10CC00001022C3F808230022C3F800254FF0FF329A
:10CC1000C3F80C251030C3F8142500F0E4BB00BFA6
:10CC20000020004004200040103000F0EEBB103027
:10CC300000F0F1BB103000F0DABB000070B500234B
:10CC400043604FF47A7304468360064B40F8103B10
:10CC50000D46164600F0B1FB84F8585084F8596030
:10CC6000204670BD98080200034B00221A60034B57
:10CC70001030197800F0ACBB1021004006410020B4
:10CC8000B1F5E16F37D3B1F5616F37D3B1F5E15F3E
:10CC900037D342F6DF63994235D944F29F13994264
:10CCA00033D945F6BF53994231D948F23F339942BF
:10CCB0002FD94BF67F3399422DD903F596439942EC
:10CCC0002CD903F5E14399422BD903F596339942C8
:10CCD00029D91B4B994229D903F5E133994228D927
:10CCE000184B994228D9184881428CBF4FF0805088
:10CCF0004FF0706070474FF49E2070474FF41D2036
:10CD000070471248704712487047124870471248DF
:10CD10007047124870474FF41D0070474FF46B0086
:10CD200070470F4870474FF0EB7070474FF06C70D2
:10CD300070474FF0806070474FF0E860704700BF69
:10CD400047AA0300FF8B0A001FA90E0000B01300C2
:10CD50000050270000F03A0000A04E0000C075000F
:10CD600000903A0101F00F0101290CBF0E200020B4
:10CD7000704700002DE9F0412B4C2C4BC4F8443592
:10CD800001262B4BC4F848650546C4F83435C4F871
:10CD900038650F4690F8580000219046FFF7B2FD25
:10CDA00095F859003146FFF7ADFD95F85900314629
:10CDB000FFF708FE39462846FFF762FF4146C4F8F0
:10CDC00024052846FFF7CEFFC4F86C0595F85910E6
:10CDD00095F85800174B142202FB013102FB003377
:10CDE00049685B68C4F80C15C4F814350823C4F806
:10CDF00000351023C4F804330F4BC02283F80223FC
:10CE00000422C3F880211A600C4B00221A60D4F867
:10CE1000003243F02003C4F800322660084B1B6840
:10CE2000002BFBD0BDE8F081002000400541002030
:10CE3000064100200805020000E100E0102100404A
:10CE40004C2100401322FFF795BF00000148FFF777
:10CE50000BBF00BFA440002008B500F01FF8002061
:10CE6000FFF74AFB0A4800F0FFFA0A4800F0CAF848
:10CE7000FFF7F0FA00F082FA08B100F0EFF9FFF7DF
:10CE8000EDFA054B002BFAD0AFF30080F7E700BFB7
:10CE90005441002045D10100000000000A4B1A68EF
:10CEA0004FF47A73B2FBF3F2013AB2F1807F0AD207
:10CEB000064B5A60064AE02182F8231000229A604D
:10CEC00007221A607047FEE70040002010E000E0F3
:10CED00000ED00E052DF704710DF704760DF704701
:10CEE00061DF704708B5AFF3008008BD224B1B78A7
:10CEF000F7B5002B3DD0214B1C68D4F1010438BF9D
:10CF0000002400251F46002D31D101A8FFF7E2FFC4
:10CF100005280CD010B102F06DFB09E0019801F07A
:10CF2000C9FC174B1B681BB10198984700E001250D
:10CF3000DCB9144B02A91B8821F8043D124B1E6872
:10CF40003046FFF7CDFF0528044608D018B102F09F
:10CF500051FB002404E03B683046984700E0012480
:10CF6000002DD2D0002CCED003E015B9CDE7002C97
:10CF7000DFD003B0F0BD00BF074100201441002006
:10CF800010410020084100200C41002010B5D9B10B
:10CF90008C0719D1144C216014490A80144A154990
:10CFA0001360FFF799FFC0B9134B144901221A709F
:10CFB00091F816335B099A1E052A02D8043B012B0F
:10CFC00004D842F202030DE007230BE00C4A9368F9
:10CFD0002BB1136843F480031360034602E04FF45F
:10CFE00080020A60184610BD0C4100200841002054
:10CFF00018410020E5CE01000741002000E100E0DB
:10D000006C47002018B1034B1860002070470E20B9
:10D01000704700BF1441002018B1034B1860002076
:10D0200070470E20704700BF1041002008B5074B25
:10D030001B682BB1984738B1BDE8084002F0DABA56
:10D04000BDE80840FFF752BF08BD00BF18410020EF
:10D0500070B5144605460E4610460021142202F013
:10D0600045FB227B26720020012360F3000223800F
:10D0700020612273657205B1A372002070BD0000AB
:10D0800082B0034B0193019B002002B0704700BFA8
:10D090000040002007B5064B019302A9019B41F80F
:10D0A000083D6946FFF71AFF03B05DF804FB00BFB7
:10D0B0000040002072DF704773DF704774DF7047F5
:10D0C00076DF70477ADF70477CDF7047A7DF7047F5
:10D0D00030B50B78152B85B0054615D104230C4CC3
:10D0E00002930DEB0301039400F0D4FF60B92368B1
:10D0F000DB0706D5074B0C2118884FF6FF72FFF7A8
:10D10000E5FF284601F01CF8002005B030BD00BF47
:10D110001C4100200840002008B5094B18884FF634
:10D12000FF73984203D01321FFF7CAFF01E0FFF716
:10D13000C5FF4FF4FA70BDE80840FFF7F1BC00BF2F
:10D140000840002010B5044686B0808800F01EFC20
:10D150001B4B1B7863B302282AD0A37D022B27D058
:10D16000204601F03BF91748214600F043FB238895
:10D17000102B1AD0112B1BD1134B4FF6FF721A80B4
:10D1800068460021182202F0B1FA0023A022684666
:10D190008DF8003001938DF808300393ADF810201E
:10D1A000ADF81230FFF788FF02E0074BA2881A8023
:10D1B000064B13B12046AFF3008006B010BD00BF90
:10D1C000064000202441002008400020000000000C
:10D1D00030B585B004AD002405F8104D01F046FFD0
:10D1E000684600F047FE21460DF10900052202F0D5
:10D1F0007DFA144A9DF809301278134862F300034F
:10D20000124A127862F34103114A127862F38203E0
:10D21000104A127803F0F70362F3061364F3C7139E
:10D220008DF8093007238DF80A3010238DF80B3064
:10D23000094B019301A901238DF8083000F086FE07
:10D2400005B030BD0A4000202041002021410020CF
:10D250002241002007400020D1D0010070B5414E8E
:10D260008CB0FFF7B5FF06B3AFF30080E8B10C2236
:10D27000002101A802F03AFA3B4B029300230393EA
:10D2800001A901233948ADF8043000F035F93848D8
:10D2900002F09AF9374B187802F09CF9002E4AD028
:10D2A000AFF30080002846D059E09DF800303248A6
:10D2B000012262F303030CAC62F3071304F8303D60
:10D2C00002F0DCFA2C4982B26846FFF7FDFE00212D
:10D2D000082201A802F00AFA4FF4A073ADF8043056
:10D2E0004FF402730024ADF8063001A84FF4C87360
:10D2F000ADF80A30ADF80840FFF7E4FE21461F22E2
:10D3000004A802F0F3F91C4802F0B8FAC5B26B1C8D
:10D310008DF810302A4609230DF1120016498DF8B8
:10D32000113002F0DAF9A91C04A8C9B2224623463A
:10D33000FFF7C0FE9BE7182204A8002102F0D6F9EF
:10D340000023A02204A88DF8103005938DF8183022
:10D350000793ADF82020ADF82230FFF7ADFE0CB0FA
:10D3600070BD00BF0000000041F401002441002016
:10D3700019D1010020410020C0080200014B18789B
:10D38000704700BF0640002008B5024B0BB1AFF359
:10D39000008008BD00000000F8B506460C468F1856
:10D3A0000025BC4207D0336814F8011B1B683046C7
:10D3B00098470544F5E72846F8BD10B50021044616
:10D3C000402202F093F9002323646364204610BDD9
:10D3D000026C10B5531C446C03F03F03A3421CBF06
:10D3E0008154036410BD0023036443647047436C9D
:10D3F000026C934206D0C25C013303F03F034364E6
:10D40000104670474FF0FF307047026C436CD01AE3
:10D4100048BF40307047436C026C934214BFC05CFD
:10D420004FF0FF307047000010B5044601F0E6FDF4
:10D43000022C02D0032C02D010BD002200E00222F8
:10D44000014B1A7010BD00BFC442002010B500216E
:10D45000142304468162C1620163C0F8243128228A
:10D4600002F044F9204610BD7FB5164B16491868E6
:10D470000090482268460023FFF788FD08B102F0BB
:10D48000B9F80720012101AAFFF7E2FD08B102F077
:10D49000B1F80423ADF804309DF810300B4843F088
:10D4A00001038DF81030FFF7EBFD08B102F0A2F890
:10D4B00001A8FFF7EFFD0648FFF7AEFD07B05DF8E6
:10D4C00004FB00BFD10802007C420020283D002060
:10D4D00029D401000148FFF7B9BF00BF5441002023
:10D4E000A0DF7047A2DF7047A5DF7047A6DF704757
:10D4F000A8DF704763DF70472DE9F047884694B096
:10D500000546002800F03681002900F033814B6881
:10D51000002B00F02F814FF6FF730380994B04AA74
:10D5200003F11006174618685968144603C40833F7
:10D53000B3422246F7D114AE41F2305338460DF1D2
:10D540000A0126F8483DFFF7D5FF002840F0148176
:10D55000012031462A1DFFF7C3FF0446002840F092
:10D560000C819DF80A30AB7121461C220DA802F0F7
:10D57000BDF89DF834300E9443F004038DF8343038
:10D5800001AFAB798DF80E30214641F232530322C0
:10D5900038461094119412941394ADF80C3002F0A4
:10D5A000A5F89DF8043064F3030364F307138DF8C2
:10D5B00004309DF80530012666F3030366F3071374
:10D5C0008DF805309DF8063066F3420364F3C3031B
:10D5D00064F30413DBB233432146142208A88DF808
:10D5E00006300DF10C0902F081F84FF0140AA888FA
:10D5F000ADF828400DA908AA05F10803ADF82A40A6
:10D600000C94CDF820900997ADF82CA0FFF76AFF95
:10D610000446002840F0B18021461C220DA802F0EB
:10D6200065F89DF834300E9443F018038DF83430CB
:10D63000AB798DF80E30214641F231530322384642
:10D640001094119412941394ADF80C3002F04EF82B
:10D650009DF8043064F3030364F307138DF804307A
:10D660009DF8053066F3030366F307138DF8053064
:10D670009DF8063066F3420364F3C303DBB243F064
:10D6800011032146524608A88DF8063002F02EF804
:10D690001723ADF82C30A888ADF828400DA908AAAA
:10D6A00005F11003ADF82A400C94CDF820900997AD
:10D6B000FFF718FF044600285FD121461C220DA861
:10D6C00002F014F89DF834300E9443F002038DF804
:10D6D0003430AB798DF80E30214641F234530322B9
:10D6E00038461094119412941394ADF80C3001F054
:10D6F000FDFF9DF8043066F3030366F307138DF80E
:10D7000004309DF8053064F3030364F307138DF8C8
:10D7100005309DF8063066F3420364F3C30364F3F7
:10D720000413DBB233432146524608A88DF8063075
:10D7300001F0DCFF0223ADF82830ADF82C30A888CA
:10D74000ADF82A400DA908AA05F12003CDF82090D4
:10D750000997CDF83080FFF7C5FE044668B9D8F8C0
:10D760000430AB62D8F8083003B1EB62064B0122FB
:10D770001A7002E00E2400E00446204614B0BDE812
:10D78000F08700BFD5080200C542002030B504462E
:10D7900087B030B300884FF6FF73984223D0134B05
:10D7A0001B7803B3124D102369700321ADF80610E6
:10D7B000AA7002A81A4600212B7001F097FF238A55
:10D7C000ADF8083001238DF80A300023ADF80C3095
:10D7D000208805950DF1060302A90493FFF786FE44
:10D7E00002E00E2000E0082007B030BDC542002056
:10D7F000C642002070B50D4688B00446002800F0EF
:10D80000C380002900F0C080826A002A00F0BC803A
:10D810000B88112B1BD004D8102B40F0B5808B88BF
:10D8200017E0502B02D0512B15D0ADE0C9880389E9
:10D83000994240F0A98008238DF81030123535F850
:10D84000023C8DF81830059504A990479CE04FF6EE
:10D85000FF73238098E08B79022B40F095800A8932
:10D86000038A9A4240F090808B7B043B022B40F26B
:10D870008B809DF8163043F001038DF816300B8A2B
:10D88000ADF818304B8AADF81A30022601F11403B6
:10D890000822002101A88DF81060079301F026FFEF
:10D8A00000230DEB030202922088A18AADF80460E8
:10D8B00001AAADF80630FFF717FE064618B1E36A75
:10D8C0002BB1984703E09DF80030DB0708D440F205
:10D8D000FD132088ADF8143004A9FFF709FE4FE0CE
:10D8E000ADF8140004A92088FFF702FE002847D1F4
:10D8F000297D4B1E072B3FD8DFE803F0040E1D1FC8
:10D9000021233C256B8A8DF80460012B02D8204628
:10D91000012109E0012309E06A8A01239A428DF876
:10D92000043003D820460221062227E015358DF861
:10D930000C30029519E0022315E0032313E00423C1
:10D9400011E005230FE06B8A022B02D82046082144
:10D9500013E0AA7D6B7D43EA0223ADF808300BB9D2
:10D96000072300E006238DF80430A36A204601A9AE
:10D97000984709E00923F6E720460322FFF706FF50
:10D9800010B1E36A03B1984708B070BD38B5094CCF
:10D990000546217D201D2A4601F03AFE40B1201D9A
:10D9A000A17D2A4601F034FE00280CBF0120022090
:10D9B00038BD00BFD04200207FDF704786DF704750
:10D9C000A7DF7047A9DF7047AADF704700207047C4
:10D9D00000207047002070470020704700207047EB
:10D9E00000207047002070472DE9F34704460F469A
:10D9F0002B48A1786A4601F0EDFB00284DD1294B58
:10DA000062780C2101FB02319946897A11F0400FAE
:10DA100009D1022F07D0012F07D12348A178234E27
:10DA200001F004FF02E0224E00E0224EDFF8988071
:10DA3000A1781C2505FB01812A4600236846B047D2
:10DA4000A178824605FB01811B482A46002301F08C
:10DA5000EDFEBAF1000F12D1022F1ED063780C2216
:10DA600002FB039368469A7A22F040029A72617828
:10DA7000124B2A4605FB01312B46B04701E0022F2D
:10DA80000BD00F4A23780C2101FB032368469A7AB6
:10DA90000C4B214653F82230984702B0BDE8F0877E
:10DAA0006044002028430020F808020025F201000D
:10DAB0009DF20100CDD9010034090200104400207C
:10DAC00050440020E8080200344300202DE9F843C8
:10DAD00043782B492B4F24225A43804688184468A8
:10DAE00074B10C2000FB0370807A050607D5400650
:10DAF00005D402F10806A5B20E448C5802E00024B9
:10DB0000254626464FF00C0909FB03733146188958
:10DB10002A462346FFF756FF0B280BD198F8012021
:10DB2000184B09FB0233314618892A460123FFF7B7
:10DB300049FF0124002848F2410518BF2846012C5E
:10DB40001BD198F801300C2101FB03774FF6FF72CF
:10DB50003889FFF735FF80B143F2020398420BD0BA
:10DB6000082809D043F20403984205D011280CBFBD
:10DB700028460020BDE8F8832846BDE8F88300BFAA
:10DB80002C44002028430020FFF7A0BF2DE9F043DC
:10DB900089B01A23ADF80230244F4B784FF00C08AF
:10DBA00008FB037381460E46188901A90DF1020294
:10DBB0000323FFF709FF002834D170781C4DBDF80E
:10DBC0000220242404FB0050083001A901F076FD56
:10DBD000737868B908FB0377BA7A02F0020202F0A0
:10DBE000FF01FAB904FB0350224601F07FFD19E062
:10DBF0006343E9180F484A680F4F002A18BF0746C9
:10DC00000322EA5003F10800BDF802204A602844CC
:10DC100001A901F062FD7178484604FB01512246DA
:10DC20003823B847002009B0BDE8F083284300201E
:10DC30002C4400209DF2010025F20100FFF7A6BF51
:10DC400070B50346094D487824240E4604FB005065
:10DC500019462246382301F05DFB30B9737804FB86
:10DC600003546368013308BF606070BD2C4400201A
:10DC7000FFF7E6BF2DE9F0471C46544B92B017461C
:10DC80001A681A9E824688469946002A00F09A80B1
:10DC9000742E00F29780FF2300258DF805308DF853
:10DCA00006308DF807308DF804508DF81050099427
:10DCB00008964748A9B202AA01F08CFA40B950462A
:10DCC00002A9082201F0FAFC10B98DF8065002E012
:10DCD0000135072DEDD19DF80630FF2B72D0B8F13C
:10DCE000030F06D1742E0CBF202340238DF8103073
:10DCF0004EE0384AA21AC32A11D8374827B9012161
:10DD00000268994011425DD0012202FA03F30268D1
:10DD100022EA0302202302608DF8103047E02F4AE8
:10DD2000A21A1B2A09D8002220238DF805200AAA4E
:10DD30008DF810300992089339E02948221A232AD5
:10DD400013D830238DF8103000238DF805300123CF
:10DD50008DF80730234B9B7A03F0020303F0FF0199
:10DD60002BBB242201F0C2FC21E040228DF81020C0
:10DD70001D4A94420CD01D4A52F82320A24221D1C0
:10DD8000184AD27A9A4212D100238DF805300EE05B
:10DD90009DF8103043F003038DF8103007AB059366
:10DDA00001A8D9F8003004A93A4698470AE0B8F12A
:10DDB000020F9DF8103002D143F00103ECE743F06D
:10DDC0000203E9E712B0BDE8F08700BF504400202D
:10DDD00060440020344300205C44002010440020B4
:10DDE0002C440020284300202C0D02000443002076
:10DDF00070B5114E1C2444430546301900213444AB
:10DE00000622113001F072FC00211022204601F0A0
:10DE10006DFCFF232374A3764FF6FF732383074B18
:10DE200001211A68A94022EA01021A60044B00226B
:10DE300043F8252070BD00BF344300205C4400201F
:10DE40000443002037B50546A9B209486A4601F0E7
:10DE5000C1F9044640B96846742101F0A7FA0446A6
:10DE600010B92846FFF7C4FF204603B030BD00BFFD
:10DE7000604400207FB50546002853D02B482C4B2A
:10DE80000122002482724FF6FF720281C272214683
:10DE900007221C605C729C7201F028FC2548214618
:10DEA000242201F023FC2046FFF7A2FF224BFF2291
:10DEB000E2540134072CF6D104A8204A40F8102D72
:10DEC000742368461E49ADF80430ADF8064001F0F1
:10DED00017F948BB1B4E2C7801233370C4B918487E
:10DEE000A1B202AA01F076F9054650B916481C22E3
:10DEF00002FB040002A92B4601F00CFA20B1357098
:10DF000012E0002333700FE00134072CE7D10BE05F
:10DF1000BDF80630BDF804100948594389B201F034
:10DF200045FA01E048F20E0004B070BD284300201D
:10DF3000504400202C4400202043002075DC0100C8
:10DF4000604400202743002034430020184B1B78F6
:10DF500070B506461BB328B321B3086810B3154B40
:10DF60001A6812BB0D461C4644F8040B55F8050F01
:10DF700058602879207109799972197A62F3000141
:10DF8000C9B241F0020162F382011972D97941F0FC
:10DF9000030162F38201D9713270104670BD48F2FC
:10DFA000080070BD48F20E0070BD48F2040070BD5C
:10DFB00027430020504400207FB52E4B1B78054698
:10DFC0000C46002B50D0002848D0002946D08B6842
:10DFD000002B43D00378002B46D1274B1B68002B26
:10DFE00042D0817806293CD8244B1C2202FB013305
:10DFF0009B7EFF2B35D04378214A0C2000FB032366
:10E000009B7A1B0730D56368032B30D91D4802AAC1
:10E0100001F0E0F860BB01A802A90422602301F02E
:10E0200079F938B9184A194E019BB3F1FF3F08BF7F
:10E03000164600E0144E02A8211D04226023B047BA
:10E04000B0B902A8A1681022642301F027F978B9B9
:10E05000AA780F4BA16843F8221009E048F20E009D
:10E0600006E048F2100003E048F2080000E0072054
:10E0700004B070BD274300205044002034430020EA
:10E08000284300206044002025F201009DF2010099
:10E09000044300201FB5254A127803460C46002A87
:10E0A0003AD0002835D0002933D00278002A33D165
:10E0B0001F4A1268002A2FD08278062A2FD81D49BD
:10E0C0001C2000FB0211897EFF2928D0A0681A4974
:10E0D00018B951F82220A26001E041F82200174847
:10E0E000997802AA01F076F8F0B901A802A90422F1
:10E0F000602301F00FF9A8B9019B013312D0A06889
:10E1000002A91022642301F005F968B9019B63603C
:10E110000AE048F20E0007E048F2080004E048F286
:10E12000100001E048F2400004B010BD2743002079
:10E130005044002034430020044300206044002069
:10E140001FB51C4B1B78044663B340B303784BBB2D
:10E15000194B1B6833B38178062926D8174B1C222C
:10E1600002FB01339B7EFF2B1FD0154802AA01F052
:10E1700031F8E0B9602301A802A9042201F0CAF82D
:10E18000019B013313D002A80E490422602301F041
:10E1900085F860B9A2780C4B43F8220007E048F2FA
:10E1A0000E0004E048F2080001E048F2100004B05C
:10E1B00010BD00BF274300205044002034430020FE
:10E1C000604400202C0D020004430020084B1B7803
:10E1D0005BB139B130B1007838B9064B1B6823B157
:10E1E0000870704748F20E00704748F20800704708
:10E1F00027430020504400201C4B1B7810B57BB3F4
:10E2000058B351B304785CBB194B1B6843B3827895
:10E21000FF2A0FD14278FF2A25D0164B0C2000FB95
:10E2200002339A7A92071ED51A680A609A888A8001
:10E230009B790FE0104B1C2000FB02339A7E02F00A
:10E24000020202F0FF0472B953F8100F08609A88B6
:10E250009B798A808B71204610BD48F20E0010BD5C
:10E2600048F2080010BD48F2050010BD2743002009
:10E270005044002028430020344300202DE9F0437F
:10E28000264B1B788BB005460C46002B3DD0002852
:10E2900038D0002936D00378002B36D1204A1268B6
:10E2A000002A32D08278062A32D8DFF87C801C27F8
:10E2B00007FB0282927EFF2A2AD0CB608278DFF8A9
:10E2C0006C904B6107FB028203AE0A61C1F80490B7
:10E2D0008B600E601348A97801AA00F07BFFC8B9D3
:10E2E000304601A93A463B4601F014F890B9E06087
:10E2F000AB78606107FB03872761C4F80490A060D6
:10E30000266007E048F20E0004E048F2080001E051
:10E3100048F210000BB0BDE8F08300BF2743002097
:10E32000504400206044002034430020F843002083
:10E330007FB5044602AAA1781E4800F04BFF617821
:10E340000346002830D11C4E039A1C481C2505FBAF
:10E3500001630095019501F069FA60782A4605FB92
:10E36000006002A92B4600F0D5FF024618B1144800
:10E37000617801F05BFA382261780092114A124804
:10E38000242303FB012201F051FA104B9A7A104B1F
:10E3900002A853F8223021469847024640B16178DE
:10E3A0000C4801F043FA03E00B48A27801F03EFA72
:10E3B00004B070BD604400201044002070090200C9
:10E3C000CC0902002C440020080A0200504400201E
:10E3D0000C0D0200510A0200900A02002DE9F041E2
:10E3E000B74A90B01278FF2305460393002A00F045
:10E3F0002E82B44F3A68002A00F0298206888DF8F0
:10E4000011308DF812308DF81330031D06934FF044
:10E4100000082C23102EADF81C308DF81080AA4C6B
:10E4200022D0A27A8388920708D54FF6FF729342D2
:10E4300000F0CE8122899A4200F0CA81192E00F0A4
:10E44000EB8007D8132E67D0142E3BD0112E40F04E
:10E45000FE8119E01E2E00F09C81522E00F08F816B
:10E460001A2E40F0F48159E1984801F0DFF94FF09D
:10E47000A0434FF08052C3F81825C3F80825A37AAB
:10E48000DE0700F1AC81E2E19148297A01F0CEF992
:10E49000A27A02F0FD031007A37206D519060DD566
:10E4A00004A80021FFF7A0FA08E09DF81200FF2859
:10E4B00004D0FFF79DFCFF238DF812301023A372C8
:10E4C00012236AE1834801F0B1F9E37AFF2B18D1F6
:10E4D0002A8A002380491C2000FB0311098B9142EA
:10E4E0000CD1A27A039342F00802DBB204A8E372D3
:10E4F000A2728DF81230FFF71BFF02E00133072BE9
:10E50000E8D1E37A7549A888734AFF2B08BF002138
:10E510000023FFF753FA9AE1714801F087F9A37AD3
:10E520008DF8146043F00403A372E37A664EFF2B68
:10E530005AD1002368491C2202FB03128846907EB0
:10E54000FF2820D120786049022802F118000AD063
:10E55000FD26867002F110060868106188888A79A5
:10E56000B080B27101E0FE2282708DF80C305D48FF
:10E57000039A002101F05AF99DF80C308DF8123001
:10E58000E372002609E00133072BD3D1564848F245
:10E59000430101F04BF948F24306297A2B7BEA7AD2
:10E5A000524801F001010091C2F3400203F0010161
:10E5B000C3F3800301F03AF9E37AA8881C2202FB36
:10E5C00003830D93454B08930021494A0C9108ABF6
:10E5D0000E910F9109910A910B91FFF7EDF9014608
:10E5E000002800F0DD8013E0424801F01FF9B37A03
:10E5F00043F04003B372002216238DF814308521B6
:10E60000A8881346FFF7D8F90146002800F0C78014
:10E61000394801F00BF91AE1297A384801F006F976
:10E620007B7AA27A23F0010302F0FB017B721420B3
:10E63000A1728DF81400287A234B60B1520604D4DD
:10E64000D87AFFF7FFFB2E7A00E00026297A022015
:10E65000FEF79AFEA4E06A7A560740F1A0809DF882
:10E660001220FF2A00F09B8041F0080199726B7B19
:10E67000980707D5184B1C2101FB0233997E21F026
:10E6800001019976E37A104DFF2B00F0888000217C
:10E69000144801F0CBF82B780F4A022B9DF812306A
:10E6A0004FF01C0101FB03232AD09A7E28681861D1
:10E6B000A979A888988222F0020299759A7628E0B2
:10E6C000274300205044002028430020DC0A020099
:10E6D000EE0A02000F0B0200344300201044002019
:10E6E000370B0200610B0200D00C0200890B020004
:10E6F00054440020F00B0200B00B0200110C020089
:10E700005449498A198303F118029B7E23F00103BF
:10E71000937004A80121FFF767F940E02A7A4E4878
:10E7200002F00F01120901F081F82B7A112B14D19C
:10E73000A37A4A4D190710D549480021324600F006
:10E74000D5FF16238DF81430AB7A43F06003AB721B
:10E750007B7A43F002037B7221E000210120FEF767
:10E7600013FEA37ABA7A63F07F03A37215238DF8A0
:10E7700014303C4B04A853F8223098470FE03A4835
:10E7800001F054F8BA7A374B04A853F8223098476E
:10E790005DE0364801F04AF813238DF81430002666
:10E7A0003B6804A805A9324698479DF81430122BFF
:10E7B0004DD1A37A2948012B49D0012383724FF60A
:10E7C000FF730381C3720021072200F08FFF3EE038
:10E7D000E37A8DF8123000238DF811302EE61123E4
:10E7E0008DF81430AB8823812E460223A37256F88D
:10E7F000080F8DF81180B379B288A371EB7DA280E8
:10E80000DA07206006D55B08194AD35CFF2B11D0CC
:10E8100003930FE04546174B1C2000FB05303146A3
:10E82000072200F04BFF08B9039503E00135072DDF
:10E83000F1D1B4E7A27A9DF80C30E37242F00802FD
:10E8400004A8A2728DF81230FFF772FDA7E710B08E
:10E85000BDE8F08110440020410C02002843002054
:10E86000344400201C0D0200830C0200AD0C020099
:10E87000204300204443002010B579B10B7883B9C0
:10E880000A4A12686AB1FF228A70094A14898442CE
:10E890000AD14B70D27A8A70184610BD48F20E0029
:10E8A00010BD48F2080010BD052010BD50440020E6
:10E8B0002843002008B540B9044A53682BB11968B1
:10E8C00051605B6800209847F6E708BD6844002067
:10E8D0004FF010235A69531C4FF080531DBF186925
:10E8E00080B2B2FBF0F05869704729DF704728DF2B
:10E8F0007047000008B5034B1A78034B53F82230D9
:10E90000984708BDF8460020440D020037B502467E
:10E910000846074C0B4650F8081F24680C254D4349
:10E9200019780094034C1B696459A04703B030BDAB
:10E9300000470020D8460020104A1378142101FB1C
:10E9400003234FF08052D88811691A690433013AC1
:10E950009B8802441A448BB2B2FBF3F2084B1B684B
:10E96000934207D308D1074B1868D0F1010038BF94
:10E970000020704701207047002070477444002039
:10E98000D0460020D4460020034B1A6822F008022B
:10E990001A60FFF7AFBF00BFF4460020074A1368B4
:10E9A000180709D4990744BF43F001031360044BCF
:10E9B00002221A70FFF79EBFFFF7E6BFF446002061
:10E9C000F8460020054B1B681B0704D4044B0122AA
:10E9D0001A70FFF78FBFFFF7D7BF00BFF4460020C4
:10E9E000F846002008B5B0B1112805D10A4B1A68C5
:10E9F00042F008021A6008BD084B1A78142101FB86
:10EA000002310431FFF782FF054B04221A70BDE882
:10EA1000084000F09BB808BDF44600207444002074
:10EA2000F946002008B5FFF760FFBDE80840FFF792
:10EA3000D9BF0000F8B5134B134E1A78142404FB09
:10EA400002344FF0805504342B696288A0889BB251
:10EA50009A42E3680ED929692F6989B2521A21694D
:10EA6000184410441144C7F38D02FFF7DBFF2B69F4
:10EA70009BB205E0184421699208FFF7D3FF638831
:10EA80003360F8BD744400200C47002038B50A4AB2
:10EA90004FF0805415682369013D9BB25D43FFF739
:10EAA00017FF2169431E89B25943044B28461A684F
:10EAB000BDE83840FFF7B6BFD04600200847002029
:10EAC00070B5104A1378142101FB032304339A888C
:10EAD0005C88DB684FF0805514441C442B699BB262
:10EAE000B4FBF3F603FB1646FFF7F2FE2969431E5B
:10EAF00089B201FB0361044B20461A68BDE87040EF
:10EB0000FFF790BF74440020D446002010B5FFF7F3
:10EB1000DFFE4FF0805301381C6919691A698BB206
:10EB200005490968A4B260435943C2F38D02BDE8A8
:10EB30001040FFF777BF00BFD046002008B5FFF7B1
:10EB4000D6FEBDE80840FFF74DBF0000294B1B78FB
:10EB5000F0B5032B4DD8DFE803F0020F1346264A29
:10EB600000231360254A1360254B5B78002B40D0AF
:10EB7000BDE8F04000F0CCB8BDE8F040FFF75ABF68
:10EB8000204B1F481A6804781F4F22F001011425FA
:10EB90004FF08056196005FB04043069256980B286
:10EBA000B5FBF0F00434386036696488013D2544D3
:10EBB000B4B2B5FBF4F5A8421CBF22F003021A6000
:10EBC000124A04BF41F0020119601168104A21B9CC
:10EBD0001B689B0701D4022300E00023BDE8F0403E
:10EBE0001370FFF787BE084BBDE8F0401868FFF7C9
:10EBF000A5BFF0BDF9460020044700200C470020C7
:10EC000074440020F4460020D0460020084700202D
:10EC1000F84600202DE9F041374A384E1378142188
:10EC200001FB0323364ADF681969B3F806C00C24D8
:10EC300004FB07244FF08058228960896468D8F863
:10EC4000105000FB02401C8900233360ABB2B1FBC3
:10EC5000F3F50CEB040203FB15130A44294D3BB9F1
:10EC6000D8F810309BB29C4504D0824200D10CB140
:10EC7000032F09D14FF080531B699BB2B1FBF3F115
:10EC8000214B1960032331E04FF0805321441F6969
:10EC9000BFB2B1FBF7F407FB14111C4C89082160CB
:10ECA0008242196921D089B2B2FBF1F401FB14212F
:10ECB000D9B11C69196992B280B2A4B289B2B0FB11
:10ECC000F4F4B2FBF1F18C4203D1821A9208326063
:10ECD0000BE019691B699BB2B2FBF3F003FB102236
:10ECE00089B292B28B1A9B08336002232B70BDE865
:10ECF000F041FFF72BBF00BF74440020D446002032
:10ED0000D8460020F9460020D046002008470020C1
:10ED10000A4A1378142101FB0323094AD9881B7975
:10ED20001160032B07D0042B05D0012B05D1054A18
:10ED30001370FFF70BBFFFF76DBF704774440020DF
:10ED400000470020F9460020F8B5114D6E781E2EC0
:10ED50001AD02C7834441D2C88BF1E3C142707FB86
:10ED600004540136207103C9626104F10C0282E887
:10ED70000300E380BDF818302381064B6E701C78C9
:10ED800024B9FFF7C5FF01E00420F8BD0020F8BD5D
:10ED900074440020F946002038B5124C217814251F
:10EDA00005FB014104310020FFF7B0FD217805FB90
:10EDB0000142002302251371D380D5601361536192
:10EDC00013816278013A62704A1CD2B21E2A18BFBF
:10EDD0002270054A08BF23701370BDE83840FFF762
:10EDE000B5BE00BF74440020F9460020074B1A78D6
:10EDF000142101FB02331B79042B01D0FFF7CCBF98
:10EE0000034B01221A70FFF7A1BE00BF744400201B
:10EE1000F94600201F48F8B5036813F0080121D116
:10EE20001D4C2278142505FB0242D2F810C0D78869
:10EE300016894FF080521569184A1468B4B10CF164
:10EE4000FF323A44ADB23244B2FBF5F2144D2D68B4
:10EE500095420BD143F00103124A0360124B11603B
:10EE600019700CE0BDE8F840FFF78EBDFFF764FDB8
:10EE700048B10C4B00221A6002220B4B1A70BDE8FD
:10EE8000F840FFF737BD0CB10322F6E7BDE8F840C4
:10EE9000FFF7ACBFF446002074440020D4460020A5
:10EEA000D046002008470020F8460020034B1B688E
:10EEB0001B0701D4FFF79ABFFFF766BDF446002099
:10EEC00038B5164D2C68230723D4154B1A68013228
:10EED0001A60144B1B680BB1042203E0FFF72CFDF2
:10EEE00030B10222104B1A70BDE83840FFF702BD66
:10EEF0000E4B1B684BB114F0010208BF44F0010433
:10EF0000094B0CBF2C600322EDE7BDE83840FFF74A
:10EF10006DBFBDE83840FFF737BD00BFF4460020A5
:10EF2000D046002008470020F8460020D4460020A4
:10EF300008B51F4B1B78022B32D0032B1AD0012BA4
:10EF400034D11C4B1A68100723D41B4B1A78142198
:10EF500001FB02320432194B51881B68CB1A9BB259
:10EF600053801BB9BDE80840FFF716BFBDE8084055
:10EF7000FFF760BD0F4B1A6811070AD4104B1A68CF
:10EF800001321A60FFF7D8FC30B9BDE80840FFF73E
:10EF90002DBF22F008021A60BDE80840FFF7D6BD79
:10EFA000084B1A78084B53F82230984708BD00BF29
:10EFB000F9460020F4460020744400200C4700204D
:10EFC000D0460020F8460020300D0200014B1868A2
:10EFD000FFF7B4BDD046002008B5FFF779FC4FF02D
:10EFE000805301381A691B6992B29BB25043B0FB3F
:10EFF000F3F0BDE80840FFF7A1BD000010B5174CC5
:10F00000237813F0FB0F28D0022822D0032800D049
:10F0100010BD134A126812071BD412490A68013244
:10F02000B2F57A7F0A6005D0022B0ED1BDE8104000
:10F03000FFF760BC0C4B1A78142101FB02310D2044
:10F040000431FFF763FC04232370BDE81040FFF791
:10F050007DBDBDE81040FFF76BBF10BDF946002035
:10F06000F446002004470020744400201B4A38B5B1
:10F0700000231370537002F1140302F51B72002475
:10F08000022103F8104C23F80E4C1C6023F80C4CA2
:10F0900003E9120014339342F1D1114B1C80FFF7A6
:10F0A00017FC4FF0805303381B690E4A9BB2434351
:10F0B00013600D4B1C600D4B1C601C815C81DC607F
:10F0C0009C82DC820A4B1C700A4B1C600A4B1C6041
:10F0D0000A4B04221A60204638BD00BF7444002049
:10F0E000F0460020FC460020D0460020D8460020F4
:10F0F000F9460020044700200C470020F446002079
:10F100002DE9F8432F4B1B685A0704460E464FD58E
:10F11000002850D000294ED00368002B4BD04FF070
:10F1200080588388D8F8102092B2934202D90720E1
:10F13000BDE8F8830F2BFAD9C288002AF7D0224FF6
:10F140003D6803FB0259FFF7C3FBD8F810300138C4
:10F150009BB243439945B846E9D8A2889307E6D1C4
:10F160001A490B88022B8C4628D086E828000C20F0
:10F17000174E27685843311801334D603750E088E7
:10F180000A8148814FF080510E690C690969ACF819
:10F190000030B6B200FB0262A4B2013A92FBF4F274
:10F1A00089B201FB0255C8F800500020BDE8F88381
:10F1B0000820BDE8F8830E20BDE8F8830420BDE8F0
:10F1C000F88300BFF4460020FC460020F0460020F3
:10F1D000D8460020114B1B685B0770B518D5C8B125
:10F1E000C2B10368012B17D80C250D4E5D4374196D
:10F1F00075598DB125894068668905FB01016068F4
:10F2000005FB0605A94207D213605160002070BDBE
:10F21000082070BD0E2070BD072070BDF446002090
:10F22000D8460020F7B514461A4A12685207054618
:10F230000E4626D539B330B30268012A25D80C21F1
:10F2400015484A4381188258FAB10A894F8949689A
:10F25000686802FB0711884217D2B4B1944214D8EF
:10F26000E118914211DCB70711D199070FD182073C
:10F270000DD100932946324623460120FFF764FD55
:10F2800006E0082004E00E2002E0072000E0102045
:10F2900003B0F0BDF4460020D8460020F7B5144670
:10F2A0001A4A1268520705460E4626D539B330B3BE
:10F2B0000268012A25D80C2115484A438118825832
:10F2C000FAB10A894F894968686802FB07118842C8
:10F2D00017D2B4B1944214D8E118914211DCB707A7
:10F2E00011D199070FD182070DD1009329463246DB
:10F2F00023460420FFF728FD06E0082004E00E2046
:10F3000002E0072000E0102003B0F0BDF44600202A
:10F31000D84600202DE9F3411546224A12685707C6
:10F3200006460C4634D5002934D0002832D009686E
:10F33000012931D80C201C4A41435018515890469D
:10F3400051B3028947894068616802FB0700814226
:10F3500022D20DB395421FD8E81890421CDCB007AA
:10F360001CD19A071AD111F0030717D119442A4664
:10F37000304600F0B2F9236800950C225343204632
:10F3800058F8035002213A463346A847384606E06B
:10F39000082004E00E2002E0072000E0102002B068
:10F3A000BDE8F081F4460020D84600201C4A1268CF
:10F3B000520773B50B46044629D550B30268012A9B
:10F3C0002BD80C201749424388188A582AB345681D
:10F3D00002894089616802FB005081421DD28E077C
:10F3E00019D14D1BB5FBF2F602FB1655ADB9B3FBB7
:10F3F000F2F502FB153292B27AB973B11944814227
:10F400000BD8009221460320FFF79EFC06E008205F
:10F4100004E00E2002E0102000E0072002B070BDE2
:10F42000F4460020D8460020AADF704744DF70472A
:10F4300011DF704713DF704700DF7047704700002F
:10F4400030B50A788DB0002A40F0A4800CAA048858
:10F450005549082322F82A3D20460123FFF7E4FFFF
:10F46000524B1B689847B120FFF7E0FF08B100F04E
:10F47000C1F8FFF7DDFF08B100F0BCF84FF0102332
:10F480005869FFF7D7FF08B100F0B4F80023204611
:10F4900047490293FFF7F0F900284DD1444806A9E7
:10F4A000FEF7ECFE00283AD10A99424A0B4653F87F
:10F4B000100F10609888908098799071D01D51F845
:10F4C000044B40F8044B9942F9D1069B3A4819463F
:10F4D00003F1100451F8045B40F8045BA142F9D138
:10F4E0000978017053F8121F3448C2F82A1059687D
:10F4F00041601B8903812A38FFF79EFF08B100F0A5
:10F5000079F801230293042304930CA902AB059319
:10F51000002341F8243D2648FEF74EFD09E024482B
:10F520002449FEF769FE08B100F064F82148FFF7AE
:10F5300083FF08B100F05EF8214B4FF48002C3F85E
:10F5400080214FF0FF32C3F88020C3F884201D4A89
:10F55000116801F0FC011160D2F8F41C41F0007157
:10F56000C2F8F41C19680023012202FA03F00842D1
:10F5700007D003F01F005C0982402034104840F897
:10F5800024200133262BEFD14FF01023586900F0CF
:10F5900051F806E001210322FEF7F8F808B100F067
:10F5A00029F80DB030BD00BF444700200C400020BA
:10F5B0004C47002010470020284700203A470020F1
:10F5C00000E100E010E000E0014B1860704700BF70
:10F5D0000C40002007B502AB054903F8010D1846A1
:10F5E000FEF7F4FD08B100F005F803B05DF804FB88
:10F5F0004C4700201FB50021039001AA44F20100EE
:10F60000ADF804100291AFF3008005B05DF804FB83
:10F6100010B568B1002330F81340944204D141FA88
:10F6200003F303F0010010BD0133082BF3D10020D8
:10F6300010BD0000F0B50346186880F308885868CC
:10F64000FF2464B2EFF30585002D40F00280A6464A
:10F6500000472546064621273FBAF0B4002400257E
:10F6600000260027F0B4F92040B20047F0BD00BFEB
:10F6700070B50E4B0E4DED1AAD1000241E46AC4277
:10F6800004D056F8242090470134F8E700F030FF0A
:10F69000084D094BED1AAD1000241E46AC4204D0B3
:10F6A00056F8242090470134F8E770BD74400020DC
:10F6B00074400020804000207440002030B50023BA
:10F6C000934208D0C55C0133CC1814F8014CA54214
:10F6D000F6D0281B30BD002030BD10B5002393426A
:10F6E00003D0CC5CC4540133F9E710BD0244034697
:10F6F000934202D003F8011BFAE7704730B50029A6
:10F700003CD051F8042C0B1F1D49002AB8BF9B1890
:10F710000A680C4612B95A600B6030BD93420DD294
:10F7200019685818904203D15A5811444268196018
:10F730005A60236030BD994203D80A4651680029B7
:10F74000F9D1146815199D420AD11B682344D018B9
:10F750008842136012D10868034413604B680CE0C0
:10F7600002D90C23036030BD18681C188C4203D1E9
:10F770000C684968204418605960536030BD00BF70
:10F780005447002070B5CD1C25F0030508350C2D1D
:10F7900038BF0C25002D06463FDB8D423DD3214B63
:10F7A0001C6818462146A1B10B685B1B0ED40B2BBD
:10F7B00003D90B60CC18CD501FE08C4202D1626897
:10F7C00002601AE04B6863600C4616E00C4649681C
:10F7D000E9E7154C23681BB9304600F03FF820607C
:10F7E0002946304600F03AF8431C014615D0C41CA7
:10F7F00024F0030484420AD1256004F10B00231D88
:10F8000020F00700C31A0BD05A42E25070BD3046B8
:10F81000611A00F023F80130EED10C233360002090
:10F8200070BD00BF54470020504700200FB40A4B62
:10F8300013B51C6824B1A36913B9204600F0AEFCCF
:10F8400005AB2046A168049A019300F047F802B086
:10F85000BDE8104004B070477040002038B5064C39
:10F86000002305460846236000F020FE431C02D119
:10F87000236803B12B6038BD78470020034613F896
:10F88000012B002AFBD1181A013870479368013BFD
:10F89000002B10B5936005DA9469A34208DBCBB264
:10F8A0000A2B05D01368581C10601970C8B210BD1F
:10F8B000BDE8104000F09CBAF8B505460E46144667
:10F8C000D718BC4208D0284614F8011B3246FFF76F
:10F8D000DDFF431CF5D100E00020F8BD2DE9F04329
:10F8E0009DB00D4617460393064618B183690BB9C0
:10F8F00000F054FC734B9D4201D1756808E0724BD7
:10F900009D4201D1B56803E0704B9D4208BFF56888
:10F91000AB8918070AD52B6943B10023099320232B
:10F920008DF8293030238DF82A3038E030462946CA
:10F9300000F0C4FA0028F0D04FF0FF30BFE0039A87
:10F94000111D12680391002A70DB0792013423789D
:10F950002E2B7DD05E4F21783846032200F0D6FC56
:10F9600030B1C71B049B4020B840034304930134CB
:10F97000217858488DF828100622671C00F0C6FC34
:10F98000002800F08A80544B002B7DD1039B073365
:10F9900023F0070308330393099B434409933B4631
:10F9A0001C4613F8012B1AB9B4EB07090ED002E07C
:10F9B000252AF5D1F8E7304629463A464B46FFF767
:10F9C0007BFF013076D0099B4B4409932378002BB1
:10F9D00070D000234FF0FF320493079305920693F3
:10F9E0008DF853301A9304F101094C463B4F2178AE
:10F9F0003846052200F08AFC09F10109049B28B170
:10FA0000C71B0120B84003430493EEE7D90644BF67
:10FA100020228DF853201A0744BF2B228DF8532043
:10FA200022782A2A8BD0079B214605E0524243F0D8
:10FA300002030792049389E70C4601312278303A99
:10FA4000092A03D80A2000FB0323F5E707937EE782
:10FA500063782A2B0AD1039B1A1D1B680392002B83
:10FA600004F10204B8BF4FF0FF330BE0611C002328
:10FA70000C4601312278303A092A03D80A2000FBCB
:10FA80000323F5E7059365E703AB0093304604A92C
:10FA90002A46134BAFF3008007E003AB00933046D8
:10FAA00004A92A460E4B00F08FF8B0F1FF3F8046C4
:10FAB0007FF472AFAB895B063FF53EAF09981DB08E
:10FAC000BDE8F083940D0200B40D0200D40D0200D5
:10FAD000660D02006A0D020000000000600D0200C9
:10FAE000B9F801002DE9F84315461F468A680B69ED
:10FAF000DDF820809A42A8BF13462B6091F843207E
:10FB000006460C460AB101332B602368990602D5DC
:10FB10002B6802332B60236813F006091DD094F87C
:10FB200043302268003318BF012392061FD5E11825
:10FB30005A1C302081F84300224494F8451082F882
:10FB40004310023313E03046394604F11902012311
:10FB5000C047013007D009F10109E2682B68D31AC8
:10FB60009945F0DBDBE74FF0FF30BDE8F883304626
:10FB7000394604F14302C0470130F4D023682A68B3
:10FB8000E16803F00603042B08BFC2EB01052369FB
:10FB9000A2680CBF25EAE57500259A42C4BFC3EBF5
:10FBA0000203ED184FF00009A9450ADA304639463C
:10FBB00004F11A020123C0470130D4D009F1010930
:10FBC000F2E70020BDE8F8832DE9FF470E7E0C9D8B
:10FBD0006E2E80460C4691469A4601F1430000F095
:10FBE000A58011D8632E22D009D8002E00F0AF8056
:10FBF000582E40F0BF8081F845607B4A4FE0642E6C
:10FC00001ED0692E1CD0B5E0732E00F0A48009D858
:10FC10006F2E2BD0702E40F0AD800B6843F0200388
:10FC20000B6038E0752E21D0782E34D0A2E02B68FE
:10FC30001A1D1B682A6001F1420781F842309DE0DD
:10FC400022682B6812F0800F03D01A1D2A601D68ED
:10FC500005E05106F9D51A1D2A60B3F90050002DB0
:10FC600039DA2D236D4284F8433034E022682B6862
:10FC700012F0800F03D01A1D2A601D6804E052069E
:10FC8000F9D51A1D2A601D88237E574A6F2B14BF91
:10FC90000A2308231BE07823544A84F8453023685C
:10FCA000296813F0800F01F104062E6001D00D6861
:10FCB00002E05F06FBD50D88DE0744BF43F020035A
:10FCC00023601DB9236823F0200323601023002143
:10FCD00084F8431001E0444A0A236668A660002EB7
:10FCE00003DB216821F00401216005B96EB104F144
:10FCF0004201B5FBF3F603FB16550F46555D01F8BF
:10FD000001593546002EF4D100E00746082B0AD1F0
:10FD10002368DD0707D5626823699A4203DC302334
:10FD200007F8013C013FC01B20612CE009682B68EB
:10FD3000626911F0800F04D0191D29601B681A60D8
:10FD400005E04906F8D5191D29601B681A800023B3
:10FD50002361074617E02B681A1D2A601F68384682
:10FD6000FFF78CFD63682061984288BF2361236997
:10FD7000636005E004F1420784F8426001232361D7
:10FD8000002384F84330CDF800A04046214603AA62
:10FD90004B46FFF7A7FE013002D14FF0FF301FE0C6
:10FDA000404649463A462369D0470130F5D023689A
:10FDB0009B0705D4E068039B9842B8BF18460FE044
:10FDC0000025E268039BD31A9D42F3DA4046494678
:10FDD00004F119020123D0470130DED00135F0E7EC
:10FDE00004B0BDE8F08700BF710D0200820D020073
:10FDF00070B50E461446054618B183690BB900F07C
:10FE0000CDF9224B9C4201D16C6808E0204B9C420A
:10FE100001D1AC6803E01F4B9C4208BFEC68A369AA
:10FE2000A360A3891A0709D523693BB12369206818
:10FE3000C01A63699842F6B20FDB08E028462146F3
:10FE400000F03CF80028F1D04FF0FF3070BD28469C
:10FE5000214600F025F90028F6D1A368013BA360F4
:10FE600023685A1C22601E7063690130984204D0D6
:10FE7000A389DB0707D50A2E05D12846214600F0C5
:10FE80000FF90028E0D1304670BD00BF940D02008C
:10FE9000B40D0200D40D020038B5074C0546002011
:10FEA0002060084611461A4600F01AFB431C02D196
:10FEB000236803B12B6038BD78470020324B70B502
:10FEC0001D6806460C4625B1AB6913B9284600F0FB
:10FED00065F92E4B9C4201D16C6808E02C4B9C428A
:10FEE00001D1AC6803E02B4B9C4208BFEC68A289AF
:10FEF00093B2190720D4DD0605D4092342F040024D
:10FF00003360A2813BE0580712D5616B41B104F127
:10FF10004403994202D03046FFF7F0FB00236363AD
:10FF2000A38923F02403A381002363602369236052
:10FF3000A38943F00803A38123694BB9A38903F480
:10FF40002073B3F5007F03D03046214600F090F9CE
:10FF5000A38913F0010205D00022A2606269524217
:10FF6000A26103E0990758BF6269A26022694AB999
:10FF700003F0800080B230B143F04003A3814FF022
:10FF8000FF3070BD002070BD70400020940D020055
:10FF9000B40D0200D40D02008A892DE9F041054616
:10FFA00010070C4657D44B68002B02DC0B6C002B5F
:10FFB00018DDE66AB6B102F48052002392B22F68CF
:10FFC0002B600AB1626D10E0216A28460123B04718
:10FFD000411C024609D12B683BB11D2B01D0162BC9
:10FFE00046D12F600020BDE8F081A3895B0705D5CD
:10FFF0006368D21A636B0BB1236CD21AE66A216A6A
:020000022000DC
:1000000028460023B047461CA28905D12B681BB1A6
:100010001D2B01D0162B19D100236360D104236955
:10002000236004D5421C01D12B6803B96065616B64
:100030002F600029D6D004F14403994202D028460B
:10004000FFF75CFB00206063BDE8F08142F04002F6
:10005000A281BDE8F0810E69002EC3D00B680E604E
:10006000C6EB030893070CBF4B6900238B6012E0BB
:10007000A38943F04003A3814FF0FF30BDE8F08136
:10008000A76A216A284632464346B8470028EFDD72
:100090000644C0EB0808B8F1000FF1DCA2E700004D
:1000A00038B50B6905460C46DBB118B183690BB94D
:1000B00000F074F80C4B9C4201D16C6808E00B4BCB
:1000C0009C4201D1AC6803E0094B9C4208BFEC683C
:1000D000B4F90C302BB128462146BDE83840FFF773
:1000E0005BBF002038BD00BF940D0200B40D0200BC
:1000F000D40D0200F8B5074600F1480494B1A56894
:100100006668013E0CD4AB89012B07D9B5F90E30D6
:10011000013303D038462946FFF7C2FF6835F0E7C0
:100120002468EBE7F8BD0000002310B50446036027
:100130004360836081814366C2810361436183615F
:1001400019465C300822FFF7D1FA054B6362054B74
:10015000A362054BE362054B2462236310BD00BF1D
:100160002B0302004D03020085030200A9030200D5
:1001700070B54B1E68255D430E4605F17401FFF70F
:1001800001FB044640B1002180E842000C30A06031
:1001900005F16802FFF7AAFA204670BD836910B521
:1001A000044633BB8364C3640365124B124A1B6865
:1001B0008262984204BF0123836100F01FF86060EF
:1001C000204600F01BF8A060204600F017F804213C
:1001D000E06000226068FFF7A7FFA0680921012204
:1001E000FFF7A2FFE06812210222FFF79DFF012323
:1001F000A36110BD5C0D0200F5000200F8B51B4BB9
:100200001E68B369074613B93046FFF7C7FF483683
:10021000B4687368013B04D4B4F90C5075B1683408
:10022000F8E733682BB938460421FFF7A1FF3060A7
:1002300008B13668ECE70C233B60F8BD4FF6FF735E
:10024000E3810123A38165662560A5606560256162
:100250006561A56104F15C0029460822FFF746FAB2
:100260006563A563A564E5642046F8BD5C0D0200E6
:10027000F0B58B899E0791B005460C4626D4B1F99E
:100280000E10002909DAA38913F0800F4FF0000740
:1002900014BF40264FF480660DE001AA00F098F8E4
:1002A0000028F0DB029F07F47047B7F500514F427A
:1002B0004F414FF4806628463146FFF763FA60B934
:1002C000A3899A051DD443F00203A38104F14703D7
:1002D000236023610123636113E00B4BAB62A389AD
:1002E000206043F08003A381206166614FB12846FE
:1002F000B4F90E1000F07EF818B1A38943F00103A1
:10030000A38111B0F0BD00BFF500020010B5C9B265
:1003100002449042034606D01C788C4200F1010052
:10032000F7D1184610BD002010BD10B50C46B1F92C
:100330000E1000F081F8002803DB636D0344636551
:1003400010BDA38923F48053A38110BD2DE9F04192
:100350001D468B89DB0507460C46164605D5B1F9C7
:100360000E100022022300F055F8A389B4F90E10F4
:1003700023F48053A381384632462B46BDE8F04132
:10038000FFF78ABD10B50C46B1F90E1000F042F827
:10039000431CA38903D123F48053A38110BD43F4EC
:1003A0008053A381606510BDB1F90E1000F000B854
:1003B00038B5064C002305460846236000F04EF889
:1003C000431C02D1236803B12B6038BD784700205D
:1003D00038B5074C0023054608461146236000F057
:1003E00045F8431C02D1236803B12B6038BD00BF20
:1003F0007847002038B5064C0023054608462360A0
:1004000000F03CF8431C02D1236803B12B6038BDD7
:100410007847002038B5074C054600202060084684
:1004200011461A4600F032F8431C02D1236803B18A
:100430002B6038BD7847002038B5074C05460020B2
:100440002060084611461A4600F028F8431C02D1E5
:10045000236803B12B6038BD78470020024B582237
:100460001A604FF0FF30704778470020024B582247
:100470001A604FF0FF30704778470020024B582237
:100480001A600020704700BF78470020024B5822B6
:100490001A604FF0FF30704778470020024B582217
:1004A0001A604FF0FF30704778470020094A136800
:1004B00063B118446946884202D8106018467047F4
:1004C000054B0C221A604FF0FF307047034B13604E
:1004D000EFE700BF58470020784700208047002002
:1004E000024B58221A604FF0FF30704778470020C7
:1004F000F8B500BFF8BC08BC9E467047F8B500BF11
:10050000F8BC08BC9E467047000000000B000000CD
:100510000100000004000000FFFFFF0000000000D9
:100520000C0000000100000004000000FFFFFF00BD
:10053000000000000D000000010000000C000000A1
:10054000FF00FF00000000000E000000010000009E
:100550000C000000FF01FF00000000000F00000081
:10056000010000000C000000FF02FF00000000007E
:1005700010000000010000000C000000FF03FF005D
:100580000000000011000000010000000C0000004D
:10059000FF10FF000000000012000000010000003A
:1005A0000C000000FF11FF0000000000130000001D
:1005B000010000000C000000FF12FF00000000001E
:1005C00014000000010000000C000000FF13FF00F9
:1005D0000000000016000000010000000C000000F8
:1005E000FF20FF00000000001700000001000000D5
:1005F0000C000000FF21FF000000000018000000B8
:10060000010000000C000000FF22FF0000000000BD
:1006100019000000010000000C000000FF23FF0093
:100620000000000003000000000000000A000000BD
:1006300002FFFF00000000000400000000000000B6
:100640000A00000003FFFF00000000001C00000083
:10065000000000000A00000005FFFF00000000008D
:100660001D000000000000000A00000006FFFF005F
:10067000000000001E000000000000000A00000052
:1006800007FFFF00000000001F0000000000000046
:100690000A00000008FFFF00000000001A00000030
:1006A0000100000004000000FFFFFF000000000048
:1006B0001B0000000100000004000000FFFFFF001D
:1006C000FF00000000000000FF000000000000002C
:1006D000FFFFFF000000000002000000000000001B
:1006E00002000000FFFFFF000000000018000000F3
:1006F0000100000004000000FFFFFF00FF000000F9
:1007000000000000FF00000000000000FFFFFF00ED
:1007100000000000190000000100000004000000BB
:10072000FFFFFF00000000001700000001000000B4
:1007300004000000FFFFFF00FF00000000000000B9
:100740000100000000000000FFFFFF00FF000000AC
:10075000000000000100000000000000FFFFFF009B
:10076000000000000500000001000000040000007F
:10077000FFFFFF0000000000060000000100000075
:1007800004000000FFFFFF00000000000B0000005D
:100790000100000004000000FFFFFF000000000057
:1007A0000C0000000100000004000000FFFFFF003B
:1007B000000000000700000001000000040000002D
:1007C000FFFFFF0000000000080000000100000023
:1007D00004000000FF00FF0000000000090000000E
:1007E0000100000004000000FFFFFF000000000007
:1007F0000A0000000100000004000000FFFFFF00ED
:10080000FF000000000000000100000004000000E4
:10081000FFFFFF00FF0000000000000001000000DB
:1008200004000000FFFFFF00FF00000000000000C8
:100830000100000004000000FFFFFF00FF000000B7
:10084000000000000100000004000000FFFFFF00A6
:10085000FF00000000000000010000000400000094
:10086000FFFFFF00FF00000000000000010000008B
:1008700004000000FFFFFF00FF0000000000000078
:100880000100000004000000FFFFFF000000000066
:100890000000000000000000C5CB010099D301005A
:1008A00029CC010035CC01002FCC0100B9CB0100CF
:1008B00045CE0100EDCB0100B3CB010000000000EC
:1008C00041726475696E6F5052494D4F5F44465591
:1008D000000100000723D1BCEA5F782315DEEF1288
:1008E0001200000000000000D1D901008DDB0100E2
:1008F000D5D901003DDC01005B444D5D3A5B4449C4
:1009000020253032585D3A5B434920253032585D0E
:100910003A202D3E2053746F72696E6720626F6EAD
:1009200064696E6720696E666F726D6174696F6E5F
:100930002E0D0A00626F6E6420696E666F2C207344
:100940007263203A2025702C2073697A65203A2042
:100950005B444920253032585D2C206F66667365F4
:1009600074203A205B444920253032585D0D0A003E
:100970005B444D5D3A5B253032585D3A5B426C6FAB
:10098000636B204944203078253038585D3A4C6FED
:100990006164696E6720626F6E6420696E666F7253
:1009A0006D6174696F6E2061742025702C207369ED
:1009B0007A65203078253038582C206F666673654C
:1009C00074203078253038582E0D0A005B444D5D78
:1009D0003A5B253032585D3A204661696C65642087
:1009E000746F206C6F616420426F6E6420696E6664
:1009F0006F726D6174696F6E2C20726561736F6EBA
:100A000020253038580D0A005B444D5D3A5B253097
:100A100032585D3A4C6F6164696E67207365727617
:100A200069636520636F6E74657874206174202536
:100A3000702C2073697A65203078253038582C2046
:100A40006F6666736574203078253038582E0D0A2D
:100A5000005B444D5D3A5B253032585D3A2046617B
:100A6000696C656420746F206C6F616420736572BB
:100A70007669636520696E666F726D6174696F6E09
:100A80002C20726561736F6E20253038580D0A0076
:100A90005B444D5D3A5B253032585D3A20466169D2
:100AA0006C656420746F2067657420626C6F636B83
:100AB000206964656E74696669657220666F72206C
:100AC00064657669636520253038582C207265612D
:100AD000736F6E20253038582E0D0A005B444D5D33
:100AE0003A20436F6E6E65637465640D0A005B4463
:100AF0004D5D3A20446973636F6E6E656374205276
:100B00006561736F6E203078253034580D0A005BB4
:100B1000444D5D3A203E3E20424C455F4741505F88
:100B20004556545F5345435F494E464F5F524551CA
:100B3000554553540D0A005B444D5D3A203E3E201E
:100B4000424C455F4741505F4556545F5345435FB4
:100B5000504152414D535F524551554553540D0A32
:100B6000005B444D5D3A5B43492030782530325874
:100B70005D3A5B4449203078253032585D3A204256
:100B80006F6E646564210D0A005B444D5D3A203050
:100B900078253032582C203078253032582C2030AF
:100BA00078253032582C203078253032580D0A0004
:100BB0005B444D5D3A2053656375726974792070AA
:100BC0006172616D65746572207265706C792072F6
:100BD000657175657374206661696C65642C20723B
:100BE0006561736F6E203078253038582E0D0A00FD
:100BF0005B444D5D3A2021212120426F6E642F6BB2
:100C000065792072656672657368202121210D0A5D
:100C1000005B444D5D3A203E3E20424C455F4741DB
:100C2000505F4556545F415554485F5354415455A5
:100C3000532C2073746174757320253038580D0A55
:100C4000005B444D5D3A203E3E20424C455F4741AB
:100C5000505F4556545F434F4E4E5F5345435F557B
:100C600050444154452C204D6F6465203078253028
:100C700032582C204C6576656C20307825303258FF
:100C80000D0A005B444D5D3A203E3E20424C455FDC
:100C900047415454535F4556545F5359535F415431
:100CA00054525F4D495353494E470D0A005B444D22
:100CB0005D3A203E3E20424C455F4741505F4556DD
:100CC000545F5345435F524551554553540D0A00F7
:100CD0005B444D5D3A205365637572697479207089
:100CE0006172616D6574657220726571756573748A
:100CF000206661696C65642C20726561736F6E207B
:100D00003078253038582E0D0A000000D9D901005E
:100D100041DC0100DDD9010071DC0100E1D90100F5
:100D2000CDDA0100E5D9010089DB0100FFFFFFFFFB
:100D3000C5E901009DE90100C1EE0100ADEE010031
:100D400015EE0100D9EF01000DEB0100CDEF010020
:100D5000C1EA01008DEA01004300000010400020BC
:100D6000232D302B2000686C4C0065666745464794
:100D70000030313233343536373839414243444517
:100D80004600303132333435363738396162636486
:100D90006566000000000000000000000000000088
:100DA0000000000000000000000000000000000043
:100DB0000000000000000000000000000000000033
:100DC0000000000000000000000000000000000023
:100DD0000000000000000000000000000000000013
:100DE0000000000000000000000000000000000003
:080DF0000000000000000000FB
:100DF8000090D00301010103FFFF01003DF4010051
:100E080000000000940D0200B40D0200D40D020091
:100E180000000000000000000000000000000000CA
:100E2800580D020000000000000000000000000053
:100E380000000000000000000000000000000000AA
:100E4800000000000000000000000000000000009A
:100E5800000000000000000000000000000000008A
:100E68001040002025C4010085C40100D5D401002C
:080E780001C4010000000000AC
:040000031000C49590
:00000001FF
